:020000040001F9
:10800000102E0020F58001000F8101001181010078
:108010000000000000000000000000000000000060
:1080200000000000000000000000000013810100BB
:108030000000000000000000158101001781010010
:108040001981010019810100518401001981010089
:1080500019810100000000006982010019810100FE
:1080600019810100198101001981010019810100A4
:108070001981010019810100198101001981010094
:108080001981010065830100198101001981010036
:108090008583010019810100D98301001981010044
:1080A000198101001981010000000000000000009A
:1080B00000000000000000000000000000000000C0
:1080C0000348854600F09CF800480047DD9D01000C
:1080D000102E0020401E00BF00BF00BF00BF00BF29
:1080E00000BF00BF00BF00BF00BF00BF00BFF1D195
:1080F000704700000321094802680A4302600848EB
:1081000002680A4302600748804707480047FEE7C5
:10811000FEE7FEE7FEE7FEE7FEE70000240500407D
:1081200054050040FD830100C180010030B50B46BD
:10813000014600202022012409E00D46D5409D4241
:1081400005D31D469540491B2546954040191546C7
:10815000521E002DF1DC30BD03460B439B0703D0BC
:1081600009E008C9121F08C0042AFAD203E00B78FC
:10817000491C0370401C521EF9D27047D2B201E074
:108180000270401C491EFBD270470022F6E710B572
:1081900013460A4604461946FFF7F0FF204610BD75
:1081A000F0B51FB40646002082B005464024019178
:1081B00000901BE0019922460F46304600F042F83D
:1081C000049A059B801A994110D3104619462246FD
:1081D00000F028F8361A8F4101972246012000212D
:1081E000009F00F01FF838184D4100902046641E93
:1081F0000028DFDC019B00982946324607B0F0BD1D
:10820000064C0125064E05E02046E36807C82B43CF
:1082100098471034B442F7D3FFF756FF98A90100EE
:10822000B8A9010010B5202A04DB0146203A91408C
:10823000002010BD914020239C1A0346E3401943BF
:10824000904010BD10B5202A04DB0846203AD040EB
:10825000002110BD0B46D340D0402024A21A9140EB
:108260000843194610BD0000F0B52A4885B00469DE
:1082700029480021C1630E46284F45E01420796843
:10828000704345180120B968B04008423AD0002038
:1082900000900390E8682968C043604008400146A8
:1082A0000290284602F0B0F81A4800692968604038
:1082B000084016D0224642400192E868C043504030
:1082C000084001460090284602F09EF8019A009866
:1082D000A9689043014003910098696802401140E9
:1082E00000910298A968A04301400398029A0143B3
:1082F000686822401040009A104302460A4301D0A9
:108300002A699047761CF6B278788642B6D305B0D3
:10831000F0BD0000000500504061004054200020E6
:108320008307FF22DB0E9A408907090E9940002837
:108330000BDA0007000F0838830808489B001B1859
:10834000D86990430843D8617047830804489B006C
:108350001B181868904308431860704700ED00E050
:1083600000E400E010B5064900200860486088601D
:10837000C860034940390860486002F04FF910BDF9
:1083800040110140FEB50020C043124D02906869C3
:10839000019068462E6901F04DFB074601F05CFC38
:1083A0000446002F08D002AA0199009801F062FB50
:1083B000029801F09BFC06E0029801F097FC00286F
:1083C00001D1002C02D0304601F068FA002068711B
:1083D000FEBD00006020002010B50748406800285E
:1083E00007D08047002803D00022114600F076FC19
:1083F00010BD01F0BFFB10BD8420002010B501F0BE
:1084000007FC002805D00E490C484860C8130D49E8
:1084100088610D48018CC9B201290ED1818C0907F0
:108420000BD1018D0906090F042906D1808D0006A4
:10843000000F02D105490120886010BDDFFF07C091
:1084400000050040006C0040C00F00F00006004036
:108450007CB51B4CA0681B4E0025002818D0A560D9
:1084600019488069C1B2194800F067FC002805D09E
:1084700001216A4611700190684607E0134881683F
:10848000C068401A012803D168460570B168884762
:10849000E069002803D0E561032001F0E3FE606A93
:1084A00000280BD0656208498039086808600221FD
:1084B0006A4611700190B168684688477CBD00002B
:1084C000002100404820002000250040EC2500202D
:1084D0000FB410B503A9044B044A029800F024F825
:1084E00010BC08BC04B01847CD9A010098200020A9
:1084F00030B47446641E2578641CAB4200D21D461D
:10850000635D5B00E31830BC184702E008C8121F27
:1085100008C1002AFAD170477047002001E001C16C
:10852000121F002AFBD17047FFB591B00F460546D8
:108530000026F9E0252876D100246D1CFB4A009422
:10854000012102942B780846203B984003461342B1
:1085500002D004436D1CF5E728782A280ED00221AA
:1085600028780246303A092A15D8009A0A235A4335
:10857000303A80180C436D1C0090F1E701CF009059
:10858000002805DA0120400304430098404200908F
:10859000022004436D1C28782E2815D104200443A2
:1085A0006D1C28782A280AD101CF6D1C02900BE09F
:1085B00002990A225143303940186D1C02902878E4
:1085C000014630390929F3D928786C2810D006DC07
:1085D0004C281AD068280ED06A2817D104E07428D5
:1085E00013D07A2812D110E00120400504430CE09A
:1085F0000121090501E0032109050C436978814245
:1086000003D101206D1C000524186D1C28780390EF
:108610006E281FD00DDC632833D005DC00287DD008
:10862000582812D1BEE010E0642801D069280CD18E
:1086300081E073282FD004DC6F2870D0702804D11B
:10864000B2E075286CD078286BD0149A13999047B3
:10865000761C68E06002400F022807D003280AD089
:10866000042838680AD03F1D06605CE001CFF1178E
:108670000660416057E001CF068054E03F1D067060
:1086800051E03878694608740020487404A83F1DFA
:108690000390012003E001CF03900020C043610755
:1086A0000FD5002101E00199491C029A01919142E4
:1086B00013DA8142F7DB019A0399895C0029F2D130
:1086C0000BE0002101E00199491C01918142FADB94
:1086D000019A0399895C0029F5D101990098139AB0
:1086E000401A00902146149B00F046F90199801928
:1086F000461807E0039803990078491C0391149ADF
:10870000139990470198401E0190401CF2D12146D8
:10871000149B139A009800F01FF903E008E04CE066
:108720003EE03FE086196D1C2878002800D001E764
:10873000304615B0F0BD0A2000210490059160027A
:10874000410F022905D001CFC2179446032907D053
:1087500009E0FF1DFF08FF0079683868083706E068
:1087600000B2C2179446042902D140B2C1178C4608
:1087700000226146944506DA0A46002140429141B2
:108780008C462D2102E0210504D52B216A46117665
:10879000012103E0E10701D02021F7E7019150E03A
:1087A0000A200BE0102009E0102004900021042092
:1087B000044308200591029003E008200021059160
:1087C00004906002410F022905D001CF0022944697
:1087D000032908D008E0FF1DFF08FF00796838680A
:1087E00008378C4603E080B2042900D1C0B20021D2
:1087F0000191210725D5039970292AD0049A1021C7
:10880000059B4A401A4309D16146014306D03021F5
:108810006A4611760399517602210191049A082142
:10882000059B4A401A430CD16146014301D16107BF
:1088300007D530216A461176012101910299491E1E
:1088400002910399582909D039A103910FA90F91D9
:1088500012E040216A4611760121DEE739A1F4E7F2
:108860006146059B049AFFF79BFC039B8C469B5C2F
:108870000F9A521E0F92137061460143F0D10F9868
:1088800007A9081A20300390600704D501200004CE
:108890008443029801E0012002900399884201DD9F
:1088A000401A00E000204118029001980918009831
:1088B000401A0090E00306D42146149B139A0098B6
:1088C00000F05AF88619002007E006A9085C149AFF
:1088D000139990470498761C401C01990490884293
:1088E000F3DBE0030CD52146149B139A009800F0AB
:1088F00043F8861904E0149A302013999047761CA7
:108900000299481E02900029F5DC08E00F980F99A3
:108910000078491C0F91149A13999047761C03997B
:10892000481E03900029F1DCF1E60000092801004F
:1089300030313233343536373839616263646566D5
:108940000000000030313233343536373839414297
:108950004344454600000000F8B5044600251E4685
:108960001746880404D405E039462020B0476D1C22
:10897000641EF9D52846F8BDFFB50446002581B030
:108980001E46C80301D5302700E02027880404D5FF
:1089900005E038460399B0476D1C641EF9D528469A
:1089A00005B0F0BD38B50D4C6078022802D00C49F6
:1089B0000120886069460B4800F09CF9002802D02D
:1089C00000F016F838BD0848802181606A46074BE0
:1089D0001278DA6102226270416038BD48200020BE
:1089E00000200040FC25002000230040002500401E
:1089F0001CB506490120C8600549487003206A4635
:108A000010708968684688471CBD0000002000403F
:108A10004820002004490020487004490122CA600F
:108A20004A60034908607047482000200020004049
:108A30000025004070B500240546601C90B000077A
:108A4000000F08A9103008940870601C0007000F80
:108A5000103048708878F9263040801C88701C21BE
:108A600001A8FFF792FB694608791A210843694675
:108A70000871029408A80494059407940690287835
:108A800008A98871124869468884112000940870EA
:108A900048708878E7213040801C0840400840003A
:108AA0006946887014210AA8FFF76FFB09A80A908D
:108AB00068460B900120694608864C8688860E948D
:108AC00068882B1D0AAA01A9A2DF10B070BD0000A2
:108AD000251500001CB50B49486889680090019174
:108AE000684601F001FB0848012142688902FF2322
:108AF0001B029A4311434160012101600348416018
:108B00001CBD000030A9010000750040007300404A
:108B100070B50A4880680A490A4D487028700020DC
:108B2000687004460748295D143800F0C9FC641CCD
:108B3000022CF7DB04490120086070BD007500407D
:108B400000200020BC250020007000407047F7B5D1
:108B500082B000260546167000781446002805D01D
:108B60002846039901F08AFA060008D1A87800285F
:108B70001ED02078039F001D1F2802D90C2005B0AD
:108B8000F0BD684679DF0028F9D121780322481C1E
:108B900020707A5421781922481C20707A54207849
:108BA000C1196846008801F0EBFD2178401820705B
:108BB000E8780223002810D02078039A411C217005
:108BC000135420780399471C012227700A542078F7
:108BD000EA78471C039927700A546868002815D062
:108BE0000021415620788C460246C01C03991F285C
:108BF000C4D8501C20708B5422780A23501C20703B
:108C00008B5420786246431C23700A54288900281C
:108C100009D028460094062202210830039B01F067
:108C200023FE0600ABD1288A002809D028460094EC
:108C3000072203211030039B01F016FE06009ED18F
:108C4000288B002809D028460094152214211830BA
:108C5000039B01F009FE060091D1286A002805D087
:108C60002246039900F06CFE060088D1686A00284D
:108C700005D02246039901F0CFF9060084D12C20BB
:108C8000405D002806D022462846039901F0E0FB0B
:108C90000600C7D1304672E700B587B01821684694
:108CA000FFF773FA002069460870019008724020AF
:108CB0000882B4204882684673DF002803D000226F
:108CC000114600F00BF8022000F0E2FC002803D06F
:108CD0000022114600F002F807B000BDBFF34F8F2D
:108CE00003490248C860BFF34F8FFEE70400FA054E
:108CF00000ED00E08268C3689A1A0AD0826883880F
:108D00001A4003689A5C0A708168491C81600020DF
:108D1000704705207047002906D0002A02D0531E54
:108D2000134203D0092070470E20704701608380F2
:108D300000218160C160084670478268C3689B1A41
:108D40008288934208D8C36813400268D154C1682E
:108D5000491CC160002070470420704710B50029ED
:108D600003D08A070024002A01D0072010BD0F4A33
:108D70000B465160107014215470414318469460A2
:108D8000FFF703FA00200A49C043886009484021E0
:108D90000160094A1068FF231B0498430B04184321
:108DA000106006480160002010BD00005420002023
:108DB0000063004080E200E004E400E000E100E045
:108DC0000A4B5A68002A04D05B78984203D30720E4
:108DD000704708207047142358438018044A1269CA
:108DE0000068024000200A60704700005420002004
:108DF00000050050F0B5204A5168002904D053788E
:108E0000984203D30720F0BD0820F0BD1B4B00257E
:108E1000DD631B4B1C699768002F02D1194EDB05DF
:108E20007360012686403E439660142250434218E8
:108E3000D560002201230D5893401D4216D02546CF
:108E40001D4202D003252D0405E001256D044618BE
:108E5000F7681F43F7600C4B9600F3181E68032752
:108E60003F04BE431E601E682E431E60521C202A13
:108E7000E0D30020F0BD00005420002040610040FD
:108E8000000500500063004000070050F8B5114F86
:108E900084467D68002D07D0002B07D078783C7879
:108EA000A04205D30420F8BD0820F8BD0720F8BD76
:108EB0000E461424164344432E5164192361A260C4
:108EC000616061460870411C797001F00FFA002062
:108ED000F8BD00005420002070B5114CA568002D8D
:108EE00006D0002A06D0002804D00023247809E008
:108EF000082070BD072070BD24265E43AE5D002EA5
:108F000004D05B1CA342F7DB042070BD242401269F
:108F10005C432E5564196170A2610360002070BD2E
:108F200060200020FFB59807002481B01E4615463A
:108F30000F4600280BD1002E09D001F0F5F9224987
:108F40000A9888610F70324600208E6008E0072082
:108F500005B0F0BD24234343D4549B181C75401C1A
:108F6000B842F7DB24204743BB19032048700F4663
:108F70001846CB6019461830002218232E465E434F
:108F8000D3005B181C705C709D7058603018521CC8
:108F9000032AF5DB0020C0433861BC70FC7001245B
:108FA0000A482405046003211420FFF7B9F9084892
:108FB0000460084C0198A06003211120FFF7B0F96C
:108FC000606878610020C3E76020002080E200E054
:108FD00000E100E000150140FEB504461D481746BB
:108FE00082680D46002A0CD001788C4201D2052DF2
:108FF00001D20720FEBD214624235943535C012B97
:1090000001D00820FEBD8818407801281DD0002618
:1090100001F0EEFBC0000F490190C9684018694695
:1090200001F010FC002812D0012101700A494460AF
:1090300049680830E2C007490198C968411800989A
:10904000487001F079FA0020FEBD2E46E0E70420CA
:10905000FEBD00006020002000150140F8B5144D51
:109060000446A868002809D029788C4201D307203B
:10907000F8BD24216143405C012801D00820F8BDDF
:1090800001F0B6FBC600E8686946301801F0DAFB6B
:1090900000280AD0022101704460E8683118009865
:1090A000487001F049FA0020F8BD0420F8BD000026
:1090B0006020002010B501460148FFF71BFE10BDDF
:1090C000EC250020FFB581B00446674D00200A9EC4
:1090D0000F466870AA60002958D0B888396882B2F3
:1090E0006248FFF718FE002851D1B889B96882B2EA
:1090F0005E481030FFF70FFE002848D16078032744
:1091000081005B4809180F60227800219200101836
:10911000016058486278C26022784261A268426267
:10912000544B62794033002A02D00E22DA6200E00A
:10913000D9622279022A06D0012A4F4F32884ED0B6
:10914000002A63D066E0A1788A00494951180F606F
:10915000A27801210F469740484A57608A1E026153
:10916000A2788260D86A0843D862E0780A468240D2
:109170006A60830003223E48120418180260E078F7
:1091800081403088002804D0FF280FD2072005B086
:10919000F0BD35483A4B0A46801CFFF777FE0028A1
:1091A000F5D1A8780002FF30308001E0000AA870F5
:1091B0006946A878FFF704FE0028E8D1A878FFF7F1
:1091C00019FE0028E3D1E178012088400099084287
:1091D00003D0002001F046F82DE00120FAE7002A34
:1091E00003D12A783280521C2A7004220260254A58
:1091F0009160D161DA6A01210A43DA62E2780261A0
:10920000A2788260B9603960697014E02A7832808F
:10921000521C2A70042202601A4A9160D161D96AF4
:1092200049084900D9620021C943816001610120D8
:10923000B8603860687000211348C9438160A1217B
:1092400089004160114804210160114B04981A689B
:10925000FF2424048007000EA243000402431A6086
:109260000C480160002092E748200020EC250020F7
:10927000000700500025004000200040000500507D
:10928000359B0100002100400023004080E200E007
:1092900000E400E000E100E010B501460448FFF7FB
:1092A0004CFD0446022000F0DDFF204610BD00000A
:1092B000FC25002030B50446002085B0C043A081C5
:1092C00008680E4B0D4620610FCB03936B4607C316
:1092D0002146684663DF00280ED1217868468174F4
:1092E00007490182A21C04A90120A0DF002803D1A4
:1092F00029462046FFF79EFB05B030BD88A9010036
:109300002315000078B40A88102A17D0112A17D024
:10931000502A18D1891D0A8803899A4213D10A8BD1
:10932000022A10D10469002C0DD0CB7E8D7E1B0249
:109330002B43DB07DB0F08D0002307E0898801E01F
:109340000021C943818178BC704701236D462B7091
:10935000A44601B070BC1A31604770B50C4692B09B
:1093600000216A46117007251171002809D0C178C3
:1093700049070CD502A9FFF7EAFB002808D102AE85
:1093800000E00026002C0ED0E078002802D028460D
:1093900012B070BD01AA0AA92046FFF7D8FB002829
:1093A000F6D10AAA00E00022684603790178304627
:1093B00072DFEDE770B5054601461C220F48FEF747
:1093C000CBFE0F4C002626702968002907D0082202
:1093D000A018FEF7C1FE204608307ADF02E00848F8
:1093E00008307BDF002808D1401E6080044866708A
:1093F000044A0021001DFFF76FFD70BDD02500203D
:10940000302000208DA70100F8B5224C02880027EB
:109410001F4DE689102A16D029464968112A21D005
:10942000122A2DD0502A1CD1801D0288B24218D198
:10943000028B022A15D1C27E837E10021843C00718
:10944000C00F0CD112E081886980014610480822C3
:1094500016311030FEF780FE6F70002E01D100F043
:10946000B7FAF8BD0020C04368806F700846FFF768
:10947000F5FD0028F5D0A1690029F2D08847F8BD94
:10948000811D034808221030FEF766FEE7E7000062
:1094900030200020D025002010B50446FFF7B4FF8F
:1094A0002146064800F058F8044821461C30FFF7D2
:1094B00029FF204600F058FE10BD00008C2500203A
:1094C00003B585B001216A46118200220092019203
:1094D000029203926A4691708188118004A90291D8
:1094E00006A9039180896946A6DF07B000BD000088
:1094F00030B5184B0D4604000FCB85B003936B4677
:1095000007C324D0002D22D00020C043A0822868A9
:10951000A0610020A0752146684663DF002814D1B1
:1095200021786846817401210182A21C04A90120CE
:10953000A0DF002809D12946204600F017FF0028A7
:1095400003D12946204601F0A9F805B030BD0E2010
:10955000FBE7000078A9010000281ED000291CD0DC
:109560000A88102A14D0112A14D0502A15D1891D26
:109570000A88038A9A4202D10B8B022B0ED0838871
:109580009A420AD18369002B07D00A8B1A311847F7
:10959000898801E00021C94381827047CA7E8B7EA1
:1095A00011021943C907C90F00D001218175704705
:1095B00007B584B000280DD0828A114B9A420BD097
:1095C000827D002A08D06A46128B142A06D9072009
:1095D00007B000BD0E20FBE70820F9E7002200924B
:1095E00001920292039282896B461A80039106A926
:1095F000029101219970808A6946A6DFE8E70000A0
:10960000FFFF000030B4002201290BD10B49C968CB
:10961000002907D00A4B94001C59844204D0521CE4
:10962000042AF8D330BC7047042AFBD20348103018
:10963000805C0028F6D030BC0847000010200020D5
:1096400048A90100F0B500210F4D01270F4A03235F
:109650001B048C002E593C468C40044207D0B400B9
:10966000A41826689E43266026681E4305E0B400C1
:10967000A41826689E43266026682660491C042993
:10968000E7D30020F0BD000048A90100000700500A
:1096900010B5054A0146127A0020D20702D00846CA
:1096A00000F004F810BD000010200020FEB578493D
:1096B00006464F684B690093BB00FB18002001224F
:1096C000019352050546734C3300FEF711FF180D48
:1096D00013133749596C828E858E97A1A5A5A5A530
:1096E000A5C3C8CDD4DADA120B225205A260E56018
:1096F0000D70FEBD05208005A060E56060680F2349
:109700005B055840800209D5A260E560022E02D1B7
:10971000E120C0000AE07D20400107E0E260A56092
:10972000022E01D1C82001E0FF2091300E7064218B
:10973000FEF7FCFC78430022014646E00520800548
:10974000A060E56060680F235B055840800204D587
:10975000A260E56019204001E8E7E260A560E1E76A
:1097600005208005A060E56060680F235B05584018
:10977000800202D5A260E560CDE7E260A560D3E794
:1097800005208005A060E56060680F235B055840F8
:10979000800202D5A260E56001E0E260A5600E7083
:1097A0007900002211E005208005A060E560606876
:1097B0000F235B055840800202D5A260E56001E0FE
:1097C000E260A5600E70002239460098FFF704FCA5
:1097D000FEBD05239B0544E06068012189050A461A
:1097E0008243A2600840E06010E0616801208005CB
:1097F00002468A43A2600140E160E4E7616801201B
:10980000800502468A43A2600140E1600199C8E7F1
:109810000F214905E1601BE00F468869FFF71EFC38
:1098200011218A1B1C4E01D0002802D0A660E560E1
:10983000FEBD012A0BD91046C82148436421FEF71A
:1098400075FC796800224143B869FFF7C5FBE66003
:10985000A560FEBD0F225205A260E56015E007235A
:109860009B05A360E5600EE00D225205A260E56055
:109870000122920507E00322D205A260E560921062
:1098800001E00F225205E260A5600E70FEBD0000EF
:10989000102000200005005000008000F8B522488C
:1098A00001694A1C3DD024225143826889184E68C0
:1098B0001E494C6847690079E11B0D022D0AED1C19
:1098C000002814D101201A4A00045060184A403A76
:1098D0005060184940000860174908601749012086
:1098E00008602F20FEF7F6FB0F4901200871B542F2
:1098F00000D23546E81900020C49000A40310860E0
:109900000A494968001B091B0902090A0002C91C0F
:10991000000A814204D901200649400480390860C8
:10992000F8BD00F001FDF8BD6020002000150140E9
:109930004013014080E200E000E100E0001001403F
:10994000F8B50D4611780646881D14461F2801D922
:109950000C20F8BD33880720062BFAD31927FF0106
:10996000BB4202D9164A9342F3D17288062AF0D339
:10997000BA4202D9124FBA42EBD1114FBB4203D0C7
:10998000BA4201D09342E4D8481C052220706A54A0
:1099900020781222411C21702A54207841193088E5
:1099A00000F0EEFE21784018C0B220704119708896
:1099B00000F0E6FE2178401820700020F8BD00007D
:1099C000FFFF000010B500221146FFF787F910BD18
:1099D000F8B5164800F00EF9144D0026103D144C51
:1099E000002807D0616900291BD001206A46107049
:1099F000684615E02878002805D06169002910D054
:109A0000684606700CE0687800280CD0A168002237
:109A10006868FFF7E1FA002803D0A169002900D0A7
:109A200088472E70F8BD6168F1E7000040200020F3
:109A3000D025002010B50E4900238A78CC78A242A8
:109A400012D0521CD2B28A70022A00D18B708A784E
:109A5000074B92001C339A580260486910180002A4
:109A6000000A4861012010BD0360002010BD000005
:109A700060200020F7B5144C0025A76823691EE07C
:109A800024215943C9194E68864202D9301A4860C8
:109A900017E0801B751900264E600E750E699C46F6
:109AA0000B6AB646002E0AD0019E76193602360A97
:109AB0008E607646CE6016680E6261461160591C53
:109AC000DED12361FEBD00006020002010B50446F9
:109AD000C0B200F0FBFC204610BD00000EB5112006
:109AE000694608720F220FA102A87CDF002803D06C
:109AF00000221146FFF7F2F800200090102269467C
:109B000001900A803C224A808880FF209130C880E2
:109B100068467ADF002803D000221146FFF7DEF8FE
:109B20000EBD00004E6F726469635F414443265569
:109B300041525400F8B505460D4E0C460846716872
:109B40002840084208D06946B078FFF739F9002864
:109B50000CD10098054084437068044201D0012074
:109B600002E0054202D0002000F07CFBF8BD0000BE
:109B700048200020F8B51E4C2078002837D02069F6
:109B8000002807D00026E068002805D00025002E18
:109B900004D013E00126F6E70125F8E7684651DF17
:109BA000052806D0002806D000221146FFF796F8B7
:109BB00004E0012602E0216900988847002D12D1B7
:109BC000608869460880A06861DF052806D0002803
:109BD00006D000221146FFF781F804E0012502E0DB
:109BE000E168A0688847002ED8D0002DCFD0F8BDFE
:109BF00084200020418805480288914204D340888F
:109C0000814201D801207047002070473820002091
:109C10001048018CC9B2012917D1818C090714D1D0
:109C2000018D09060A0F03D1828D1206120F0ED084
:109C3000090F012903D1828D1206120F07D00329C3
:109C400003D1808D0006000F01D000207047012055
:109C500070470000C00F00F0F8B52348016900917B
:109C6000457833E02048E900C0680E1834782AE0CF
:109C7000182060437168641C0818B178E4B2A142EE
:109C800000D100240178022902D003291BD113E05E
:109C9000154A40682421926841438F18397D002974
:109CA00011D000F083FC002038750CE024277843A5
:109CB000C0180275006A03E00B4900228B6808692E
:109CC000471CF3D108617078A042D1D128466D1E9F
:109CD000EDB20028C6D1044801690098814201D044
:109CE0000120F8BD0020F8BD60200020F8B5044632
:109CF000384800270169009146785CE03548F1005A
:109D0000C2688D1851E0601C07D0324A2420926846
:109D1000604321468018046A24E0287818214143D2
:109D20006A68401CC0B252182870A978884200D1D5
:109D30002F70284B516824209B684843C018137823
:109D4000012B34D1037D002B31D193688360D3681C
:109D5000C360136903615269C2611E4A5279002AC5
:109D600000D087601B4B82685B6996469C46D31A7D
:109D70001A02194B120A9A4202D2C368D21808E09A
:109D8000724663469A1A1202C368120A934202D9B3
:109D90009A1A426000E0476087600122C76002753E
:109DA000921E0262084600F0CFFB601CABD12878FF
:109DB00069788842A7D13046761EF6B200289DD138
:109DC000044801690098814201D00120F8BD0020BB
:109DD000F8BD000060200020FFFF7F009CB07CA247
:109DE00007CA002400941A92199118907B4B0522FF
:109DF00004212046FFF796F8002803D000221146E0
:109E0000FEF76CFF764A01217648FFF765F80028D7
:109E100003D000221146FEF761FF73490120FEF7CF
:109E20009DFF002803D000221146FEF757FF0023B4
:109E300048226E49082000F067FB002803D000226A
:109E40001146FEF74BFF009468460194047060DFF2
:109E5000002803D000221146FEF740FF644800F0BE
:109E600049FB002803D000221146FEF737FF614F5F
:109E700005ABF8687A69396907C3684604845B48AA
:109E8000FF2101315C3001904018039008A8029135
:109E9000049100900323584A01A905A8FFF712F97D
:109EA000002803D000221146FEF718FF534803266E
:109EB0000660001D0660FEF70DFE002D04D0002296
:109EC00011462846FEF70AFF0120FFF7BBFB0028DA
:109ED00003D000221146FEF701FFFFF7FFFD4848BF
:109EE0000090414869461430FFF702FB002803D078
:109EF00000221146FEF7F2FE424801903A4801A9BD
:109F00003030FFF7D7F9002803D000221146FEF7C2
:109F1000E5FE38681B90344805251430017818A8F0
:109F2000817330216846FEF730F9022168460170DE
:109F30008470C57030210CA8FEF727F9012510A800
:109F400005801BA811900CA96846FFF706FA0028A7
:109F500003D000221146FEF7C1FE1C216846FEF721
:109F600014F90520C00301900F2000040290009412
:109F700068460673C48104742348059023480690FC
:109F80006846FFF717FA002803D000221146FEF7B3
:109F9000A5FE1449E122091D0878284310400C3021
:109FA000DF22104008700720487010208870184881
:109FB000056018A917A0FEF78BFAFEF76DFE48DFC3
:109FC0000028FCD000221146FEF788FEF7E70000CB
:109FD00053746172742E2E2E0A000000102300208C
:109FE000118B01000420002078250020B4200020DF
:109FF0009994010030A9010019A7010054070050ED
:10A0000049A101004D8B010041A20100C599010049
:10A01000007000402573000070B5054600790E46BB
:10A02000801C1446C0B21178821C8A181F2A01D9DC
:10A030000C2070BD0A46491C401C2170B054207889
:10A04000FF22411C2170325420788119288800F0A9
:10A0500097FB21784018C0B22070AA88002A09D046
:10A06000A968002908D08019FEF776F820782979A8
:10A0700040182070002070BD072070BDF8B514781E
:10A080000746A01C15460E461F2803D87878801C6A
:10A090001F2801D90C20F8BD1D20001B80B2694685
:10A0A000864608803019801C7DDF0028F3D138787F
:10A0B000022805D168460088704501D8092107E0CB
:10A0C00078780821002801D0704501D968460088B9
:10A0D000421C3255641CE2B2B1542978801C081825
:10A0E00028700020F8BD000010B501788A0741787B
:10A0F000920F4907C90E406811438207540E0C4362
:10A100008103890F03D00321090408400443002080
:10A1100000F00AF803494868FF2212021040204369
:10A12000486010BD0075004010B5064902024B683A
:10A13000FF242402A3431A434A60002800D00120D0
:10A14000086010BD0075004070B515460E4600242D
:10A1500003E0305DFFF7A0F8641CAC42F9DB0A2095
:10A16000FFF79AF870BD000070B5334C05460188C2
:10A170006688324814293BD00DDC10291DD01129E6
:10A1800027D0132918D10021034622460160083246
:10A1900030467FDF0AE017290ED0192936D0522920
:10A1A0000AD100231A4619463046A9DF002803D0F9
:10A1B00000221146FEF792FD70BD0720FFF768FAF6
:10A1C000002803D000221146FEF788FDA888608091
:10A1D00070BD0020FFF75CFA002803D00022114672
:10A1E000FEF77CFD0020C0436080FEF755FD70BD8A
:10A1F0000168002904D000231A46304682DFD5E7E3
:10A2000000231A461946304682DFCFE7A879002896
:10A21000EDD1FFF73DFA002803D000221146FEF7EA
:10A220005DFD0120FFF70EFA002803D00022114641
:10A23000FEF754FD3CDFB9E7002000209C20002001
:10A2400010B50078002809D105483B21408876DF09
:10A25000002803D000221146FEF740FD10BD00008B
:10A260000020002010B51D4A1D490300FEF740F9EB
:10A2700005040B3120271200487801281FD002283E
:10A2800008D1032005E04878002804D0032801D134
:10A290000220487010BD134B04201860124B01209F
:10A2A00018609368D268D21AF3D0FEF77BFB10BD1A
:10A2B0004878012806D0022804D00328F7D1FEF7F9
:10A2C000A9FB10BD9068D168081AEED1FEF790FB8B
:10A2D00010BD48780128E8D010BD0000FC25002002
:10A2E000482000200025004000200040F0B50C4A26
:10A2F000002153681422504301240A4D03273F04D0
:10A300001E5822468A40164206D08A005219166804
:10A31000BE43166016681660491C2029F0D3F0BDB4
:10A32000542000200007005070B501240B49600440
:10A3300008600B4940108860094940398860094D20
:10A340006C602F20FDF7C6FEAC60074D00242F2067
:10A350006C61FDF7BFFE2C7170BD000080E100E074
:10A3600040130140001001406020002070B500241F
:10A370000546601C90B00007000F08A91030089433
:10A380000870601C0007000F103048708878F926AC
:10A390003040801C88701C2101A8FDF7F6FE69463C
:10A3A00008791021084369460871029408A80494AA
:10A3B000059407940690287808A9887103206946B7
:10A3C000888411200094087048708878E721304014
:10A3D000801C0840012630436946887014210AA871
:10A3E000FDF7D3FE09A80A9068460B9069460E86D1
:10A3F00014204C8688862B4668880C330AAA01A94B
:10A40000A2DF10B070BD0000F0B5002201230326CA
:10A4100036041F4697400C463C420FD0C5682C4678
:10A420003C420FD03446BD43C560084D97007D19AE
:10A430002F68B7432F602F6827432F60521C202AB4
:10A44000E7D3F0BD012464043D43EDE7000700506D
:10A45000F7B582B002981446806A0F46002833D0C0
:10A46000029800252030009028E00298816A0C2094
:10A4700068430E18217830794A1CC01C2270785429
:10A4800021781622481C20707A542078C11930880F
:10A4900000F076F921784018C0B22070B288002A06
:10A4A00009D0B16800290FD0C019FDF755FE2078FA
:10A4B0003179401820706D1C0098EDB2007BA842E5
:10A4C000D3D8002005B0F0BD0720FBE70449C861E0
:10A4D0000448C1690129FCD10021C1617047000015
:10A4E000002500400021004010B508461146C04636
:10A4F000C04610BD002803D00249C8600020704744
:10A500000E2070478420002070B5002901D08C07F0
:10A5100001D0072070BD064C0125A160628005496D
:10A52000636010DF0028F5D1257016202EDF70BD86
:10A5300084200020E9A401000120024900050860F0
:10A540007047000000E200E0F0B5174F2421BC681E
:10A5500041430D1939694A1C09D024224A4316196E
:10A560006B687268934204D8D21A726029623861AB
:10A57000F0BD0A4602E00A46396A9B1B4E1C0BD00E
:10A5800024264E4337197E689E42F4D324264E4338
:10A5900036197768FF1A77606B60296224214A4375
:10A5A00011190862F0BD00006020002070B5194C40
:10A5B0002269A5681346114606E0814207D00A4683
:10A5C000242671434919096A4E1CF6D170BD002E2C
:10A5D000FCD08A420CD1242043435819006A2061E0
:10A5E000401C05D10C4B0120986000236361607111
:10A5F000242041434819242341685A43006A5219D0
:10A600001062421CE2D02422504340194268511883
:10A61000416070BD6020002000100140F8B51D4C65
:10A620002569681C35D01C48002640686169401ABD
:10A6300007023F0A19E024204543A0682A18506801
:10A64000B84214D8A3693F1A8619156A002B09D09D
:10A65000D16990699847002807D000221146FEF77B
:10A660003DFB02E09169D0698847681CE3D1A1787D
:10A67000E078814206D1401CC0B2E070022801D1CE
:10A680000020E07003490006800D1C310E50FFF7DA
:10A6900053FFF8BD602000200015014070B58EB05A
:10A6A00005461C216846FDF770FD694608780C21B7
:10A6B00008436946087000240194039404940594A7
:10A6C0000694287808A98870022069460884601CCE
:10A6D0000007000F10300794087711204877887F13
:10A6E000F9210840801CE7210840012630436946D3
:10A6F0008877142109A8FDF748FD08A8099007A844
:10A700000A9069468E851420CC85088668882B1DA2
:10A7100009AAA2DF0EB070BD70B50178002909D07A
:10A72000012901D0022904D1002240681146FEF718
:10A73000D5FA70BD104C0F4D20782818FEF7BAFCE2
:10A740002078401CC2B2A81822702038C07F0A2886
:10A7500001D0142AEDD307490848FEF729FF08283D
:10A7600005D0002803D000221146FEF7B7FA0020DA
:10A77000207070BDFC200020002000208C250020CF
:10A780000870000A487002207047000038B515496B
:10A79000154A488890420FD04A78144C521CD2B2C5
:10A7A0004A70237B934208D3083175DF002803D019
:10A7B000A169002900D0884738BD00254D70217C53
:10A7C000002907D03B2176DF002803D0A1690029AA
:10A7D00000D0884761690029EED068460570884737
:10A7E00038BD000030200020FFFF0000D0250020F1
:10A7F00012494868C005C00D19D0103840B2002871
:10A8000007DA0207120F083A920892005118C96934
:10A8100004E081080A4A8900891809688007C00E87
:10A82000C1400806800F012803D0032803D002206E
:10A8300070470020704701207047000000ED00E0E5
:10A8400000E400E042788378521C934200D1002259
:10A850000378934201D1002070470A604168407834
:10A860001822504308187047F8B51546069C1E4636
:10A8700007460222009400F00AF8002806D1334669
:10A88000102229463846009400F001F8F8BDFFB5C3
:10A8900083B0074600200C9C8646267805463AE0A1
:10A8A0007868A90041180A88684682804988C18072
:10A8B0000022694601A865DF002810D168460178AA
:10A8C0000598814226D17046002801D0002200E080
:10A8D00002222078891841181F2902D90C2007B0BC
:10A8E000F0BD7146002908D1401CC0B2411C069B36
:10A8F000049A21701A5401208646217806980A1875
:10A90000694601A865DF0028E9D169462078097801
:10A91000401820706D1C3888A842C1DC70460028A1
:10A9200004D020780699801B401E88550020D6E769
:10A930000100000002020000000000000B09080AEC
:10A940000100000000509D001100000012000000F6
:10A950001300000014000000110003000596010020
:10A960001200030005960100130003000596010084
:10A9700014000300059601009ECADC240EE5A9E040
:10A9800093F3A3B50000406E23D1BCEA5F78231592
:10A99000DEEF121200000000B8A901000020002024
:10A9A0009C0000000A85010054AA01009C200020A0
:10A9B000740D00001A8501000000FFFF0000000078
:10A9C0000000000000000000000000000000000087
:10A9D0000000000000000000000000000000000077
:10A9E000000000000024F40000000000000000004F
:10A9F0000000000000000000000000000000000057
:10AA00000100000000000000000000000000000045
:10AA10000000000000000000000000000000000036
:10AA20000000000000000000000000000000000026
:10AA30000000000000000000000000000000000016
:10AA40000000000000000000000000000000000006
:04AA50000000000002
:04000005000180C1B5
:00000001FF
